:1000000010C02AC029C028C027C026C025C024C0CF
:1000100024C022C021C020C01FC01EC01DC01CC0E3
:100020001BC011241FBECFE5D1E0DEBFCDBF10E065
:10003000A0E6B0E0E4EAF1E002C005900D92A4363B
:10004000B107D9F720E0A4E6B0E001C01D92A536C3
:10005000B207E1F753D0A4C0D3CF1F920F920FB6CF
:100060000F9211242F933F934F935F936F937F933E
:100070008F939F93AF93BF93EF93FF9345B13091CD
:100080006100E1E0F0E0BF01631B71098091630052
:1000900090E05FD0262F842F632F4FD0382F320F60
:1000A0003093630040916000BF01641B710980912F
:1000B000620090E04ED0262F832F642F3ED0820F17
:1000C0008093620090E0831B9109819724F081E086
:1000D0008093640002C010926400FF91EF91BF9181
:1000E000AF919F918F917F916F915F914F913F91D0
:1000F0002F910F900FBE0F901F9018958CB18160BB
:100100008CB98EB581608EBD1DBC1CBC78941ABAAA
:1001100081E087B980E183B985EA86B986B18064D8
:1001200086B98FEF81B987BB83E880BF82E083BF48
:1001300080E886BF85B186BFFDCF991B79E004C0FA
:10014000991F961708F0961B881F7A95C9F7809516
:10015000089597FB072E16F4009406D077FD08D07B
:100160000BD007FC05D03EF4909581959F4F0895E4
:10017000709561957F4F0895AA1BBB1B51E107C085
:10018000AA1FBB1FA617B70710F0A61BB70B881F27
:10019000991F5A95A9F780959095BC01CD010895B6
:0401A000F894FFCF01
:0401A4002008FAFA3B
:00000001FF
